:020000040800F2
:10500000102E0020655300086D530008155300084A
:105010007153000873530008755300080000000026
:1050200000000000000000000000000077530008AE
:10503000795300080000000097520008C5B200082C
:105040007F5300087F5300087F5300087F530008F8
:105050007F5300087F5300082D8300087F830008DA
:1050600093830008A7830008BB830008B974000875
:10507000D1740008E974000801750008197500086A
:1050800031750008497500087F5300087F530008F8
:105090007F5300087F5300087F530008CF83000828
:1050A0007F5300087F5300087F5300087F53000898
:1050B0007F5300087F5300087F5300087F53000888
:1050C0007F5300087F5300087F5300087F53000878
:1050D0007F5300081DB9000835B900085DB9000804
:1050E000418300087F5300087F5300087F53000866
:1050F0007F5300087F5300087F5300087F53000848
:105100007F5300087F5300087F5300087F53000837
:105110007F5300087F5300087F5300087F53000827
:105120007F5300087F5300087F5300087F53000817
:1051300000F002F800F06DF80AA090E8000C82443C
:105140008344AAF10107DA4501D100F062F8AFF219
:10515000090EBAE80F0013F0010F18BFFB1A43F055
:1051600001031847E0FB010000FC01000A444FF076
:10517000000C10F8013B13F0070408BF10F8014BB6
:105180001D1108BF10F8015B641E05D010F8016BFB
:10519000641E01F8016BF9D113F0080F1EBF10F85F
:1051A000014BAD1C0C1B09D16D1E58BF01F801CB82
:1051B000FAD505E014F8016B01F8016B6D1EF9D505
:1051C0009142D6D37047000000230024002500261A
:1051D000103A28BF78C1FBD8520728BF30C148BF5A
:1051E0000B607047782900F0DF81002070471FB501
:1051F00000F040FD0400002000211AF06BFB401C71
:105200006060002000211AF07BFBE0601FBD10B53C
:1052100010BD00F094FE1146FFF7E9FF01F0ACFF6E
:1052200001F02EF903B4FFF7F2FF03BC08F056F9C2
:10523000EFF308807047EFF30980704768467047C6
:1052400080F3098870470000EFF308807047EFF3A0
:105250000980704768467047002804D090FAA0F093
:10526000B0FA80F0401C7047EFF3108072B67047C0
:1052700080F310887047344A1368012B04D04FF034
:1052800001031360314A1060314A116031484FF018
:10529000805101607047EFF3108272B62A480168AE
:1052A00091B14FF0000101602848016829B1EFF386
:1052B000098121E9F00F0068016025490968096842
:1052C000B1E8F00F81F3098882F310884EF0040EE4
:1052D00070471F4908601D494FF0000008601A49D7
:1052E0004FF0010008601C481C49D0F8002041EA3A
:1052F0000201016017484FF08051016018480068B2
:10530000006880F3088861B662B6BFF34F8FBFF3C1
:105310006F8F70471EF0040F0CBFEFF30880EFF3A0
:10532000098020E9F00F40F804ED1EF0040F0CBFD7
:1053300080F3088880F3098800B514F01FFC5DF83D
:1053400004EB4EF0040E7047140600200C060020FB
:105350001006002004ED00E020ED00E00000FFFF5B
:1053600008ED00E00948804709480047FEE7FEE7EE
:10537000FEE7FEE7FEE7FEE7FEE7FEE7FEE7FEE705
:1053800004480549034A054B704700005FB3000815
:1053900031510008102A0020102E0020102A002071
:1053A0007047000010B500F065FC001D10BD00BF87
:1053B00025A5010053EA020C00F069802DE9F04BAD
:1053C0004FF00006002B1FBFB3FA83F503FA05F474
:1053D00024FA05F65E4012BF1643B2FA82F502FACD
:1053E00005F4C5F120051EBF22FA05FC44EA0C04B1
:1053F000203556EA044C4FEA144418BF641C4FF0A1
:1054000000084FF00009904271EB030C39D30029DA
:1054100019BFB1FA81F701FA07F6B0FA80F700FA7E
:1054200007F6C7F120071EBF20FA07FC46EA0C0664
:105430002037B6FBF4FCA7EB0507103F07F01F0B66
:10544000CBF120060CFA0BFB2CFA06F644BFB34650
:105450000026202FA4BF5E464FF0000B5BEA060C2F
:1054600008BF4FF0010B19EB0B09ABFB027C48EBBB
:105470000608C01B06FB02CC0BFB03CC71EB0C0136
:10548000C1E70B46024641464846BDE8F08B13B5DE
:105490004FF000004FF00001AFF30080BDE81C406A
:1054A0007047B2F120030AD5C2F1200320FA02F0BE
:1054B00001FA03F321FA02F140EA0300704721FAEE
:1054C00003F04FF00001704710B54C1084EA53040C
:1054D00004D54042C1F1000138BF491E1B4204D52A
:1054E0005242C3F1000338BF5B1EFFF763FF14F0A5
:1054F000804F04D04042C1F1000138BF491E14F072
:10550000004F04D05242C3F1000338BF5B1E10BDF0
:1055100010B50446FFF746FF0068005D000704D59C
:10552000DF2C02D0A4F1200010BD204610BD0000E9
:105530000FB41CB5074B06AA7B446946009005983A
:1055400000F009FC0020694600F018FC1CBC5DF866
:1055500014FB00004108000070B50446856900682E
:10556000C10601D5302600E02026C00707D070BD57
:10557000D4E9012130469047206A401C20626D1E0C
:10558000F6D570BD70B5044685690078C00707D1AF
:1055900070BDD4E9012120209047206A401C206280
:1055A0006D1EF6D570BD000070B504460D4621464F
:1055B0001068AFF300802188090502D50F4A7A44AC
:1055C00002E00E4A7A440E32002104F1240305E081
:1055D00000F00F060009965D5E54491C0028F7D1C3
:1055E00020780023000704D5702D02D009B10223D2
:1055F00011322046BDE8704000F04FBB8ECD010057
:105600002DE9F05F894604464FF0000ADFF874B1D7
:10561000FB44C0F820A02046E1688847002874D0E9
:10562000252806D0D4E901219047206A401C206239
:10563000F1E700265F462046E168884720280546B6
:1056400007DB312D05D2781910F8200C08B106437C
:10565000F1E7B00701D526F00406C4F81CA0002726
:10566000C4F818A02A2D09D0284607F07FF938B3CE
:1056700004EB8708303DC8F8185019E059F8041BAE
:10568000204604EB87029161E1688847012F0546B7
:1056900018D1E069002820DA26F020061DE0D8F8AD
:1056A000180000EB800005EB40003038C8F8180007
:1056B0002046E1688847054607F058F90028EED1F2
:1056C000012F0AD02E2D08D12046E16888477F1C83
:1056D0000546022F46F02006C4DBA069002803DA45
:1056E000404246F00106A061F00701D026F0100606
:1056F0006C2D0BD0682D09D04C2D39D06A2D35D0AA
:10570000742D35D07A2D33D016E038E0E1682F467D
:1057100020468847B842054609D16C2F26D04FF461
:105720008060E168064320468847054604E06C2F08
:105730001AD04FF4807006430DB3A5F1410019282B
:1057400002D8203546F400664A462946204626609F
:105750004E46FFF747FD80B101280BD0F61D26F01D
:10576000070000F1080956E74020E4E78020D8E769
:105770000020D6E706F104094DE7284652E7206AE3
:10578000BDE8F09F64CD010070B5064600F076FAE2
:105790000468054630460A22002100F002F82C6019
:1057A00070BD2DE9F04791460F468046044600261D
:1057B00014F8015B2DB1FFF7F5FD0068405DC007EF
:1057C000F6D12B2D02D02D2D18D0641E4A46394615
:1057D000204600F0D8FA27B13968A14201D1C7F8B4
:1057E00000804FF0020471050BD54042002803DD14
:1057F00000F044FA0460A007BDE8F08746F4806634
:10580000E4E70028F8DA00F039FA04606FF00040AD
:10581000F2E710B5431E13F8014F002CFBD105E051
:1058200011F8014B002C03F8014B03D0521EF7D2A4
:105830000021197010BD30B505460B462A4613F8F5
:10584000014B12F8010B08B1A042F8D01CB100289E
:1058500002D06D1CF1E7284630BD40EA010310B5C7
:105860009B070FD1042A0DD310C808C9121F9C42F0
:10587000F8D020BA19BA884201D9012010BD4FF0E2
:10588000FF3010BD1AB1D30703D0521C07E000202F
:1058900010BD10F8013B11F8014B1B1B07D110F88C
:1058A000013B11F8014B1B1B01D1921EF1D118468F
:1058B00010BD40EA0103024630B59B0710D14FF0FE
:1058C000013400E008C208C91D1B9D4315EAC41F2E
:1058D000F8D013F0FF0102F8011B0DD01B0AF8E706
:1058E00011F8013B002B02F8013B05D011F8013BF8
:1058F000002B02F8013BF3D130BD0022CBB210F8EF
:10590000011B994200D1421E0029F8D11046704770
:1059100010B5431C02E010F8011B71B18107FAD1E8
:105920004FF0013202C88C1A8C4314EAC211F9D02C
:10593000C01A0A0603D0C01E10BDC01A10BD0A044A
:1059400001D0801E10BD0902FCD0401E10BD40EAEF
:10595000010370B59B072ED14FF00136042A2AD3DC
:1059600008C810C99D1B9D43121F15EAC61517D004
:10597000D8B2E1B2401A50EA056110D198B2A1B292
:10598000401A50EA05410AD123F07F4024F07F41BC
:10599000401A50EA052102D1180EA0EB146070BD28
:1059A000A342DBD018BA21BA884201D9012070BDC8
:1059B0004FF0FF3070BD0AB9002070BD10F8013BF8
:1059C00011F8014B63B1A3420AD1521E08D010F85E
:1059D000013B11F8014B1BB1A34201D1521EEDD185
:1059E000181B70BD421E12F8013F002BFBD111F8AD
:1059F000013B002B02F8013BF9D17047032A40F22A
:105A0000308010F0030C00F0158011F8013BBCF160
:105A1000020F624498BF11F801CB00F8013B38BF78
:105A200011F8013BA2F1040298BF00F801CB38BF86
:105A300000F8013B11F0030300F02980083AC0F0A0
:105A4000088051F8043B083A51F804CBA0E808104C
:105A5000F5E7121D5CBF51F8043B40F8043BAFF37F
:105A60000080D20724BF11F8013B11F801CB48BFD9
:105A700011F8012B24BF00F8013B00F801CB48BF0F
:105A800000F8012B704701B5FFF7B8FF01BD10B555
:105A9000203AC0F00B80B1E81850203AA0E8185026
:105AA000B1E81850A0E81850BFF4F5AF5FEA027CE7
:105AB00024BFB1E81850A0E8185044BF18C918C056
:105AC000BDE810405FEA827C24BF51F8043B40F8F7
:105AD000043B08BF7047D20728BF31F8023B48BFDC
:105AE00011F8012B28BF20F8023B48BF00F8012B1A
:105AF000704702F0FF0343EA032242EA024200F049
:105B000002B84FF000020429C0F0128010F0030C1C
:105B100000F01B80CCF1040CBCF1020F18BF00F8A0
:105B2000012BA8BF20F8022BA1EB0C0100F00DB84F
:105B30005FEAC17C24BF00F8012B00F8012B48BFAD
:105B400000F8012B70474FF0000200B51346944651
:105B50009646203922BFA0E80C50A0E80C50B1F1C5
:105B60002001BFF4F7AF090728BFA0E80C5048BFD9
:105B70000CC05DF804EB890028BF40F8042B08BF77
:105B8000704748BF20F8022B11F0804F18BF00F873
:105B9000012B704710B5044610F0030F08BF11F039
:105BA000030F40F015804FF0013E121FC0F20E802F
:105BB00051F8043BA3EB0E0C2CEA030C1CEACE1CA0
:105BC00008BF40F8043BF0D0A1F1040102F1040247
:105BD000521E08DB11F8013B002B00F8013BF7D106
:105BE0001146FFF78EFF204610BD00004FF0013C2C
:105BF00050F8042B51F8043B9A4221D1A2EB0C033C
:105C0000934313EACC1317D150F8042B51F8043BFB
:105C10009A4215D1A2EB0C03934313EACC130BD198
:105C200050F8042B51F8043B9A4209D1A2EB0C0323
:105C3000934313EACC13DBD04FF00000704700BF52
:105C4000D01A01BAB1FA81F101F0180122FA01F07B
:105C5000CB40C1F12001DBB2C0B2C01A2CFA01F373
:105C6000D11A914311EAC311E6D1704770477047CA
:105C70007047000000487047D02900200048704756
:105C8000B029002010B5FFF7F9FF006810BD10B56E
:105C90000446FFF7F3FF046010BD2DE9F0470D4601
:105CA00099469246044600F124080168880604D506
:105CB000E06921F01001216000E00120A84201DD2F
:105CC000471B00E00027A1697A1902EB0900081AB6
:105CD000A0612078C00602D42046FFF73DFC0026D4
:105CE00008E0D4E901211AF806009047206A401C18
:105CF000761C20624E45F4DB2078C0060AD520468B
:105D0000FFF72AFC06E0D4E9012130209047206A01
:105D1000401C2062381EA7F10107F4DC07E0D4E93B
:105D2000012118F805009047206A401C2062281EB7
:105D3000A5F10105F3DC2046FFF724FC20780006DE
:105D400002D50220BDE8F0870120FBE701694A1C6B
:105D500002610878704700B58FB0CDE901310021AC
:105D6000059105497944CDE9031011466846FFF7CE
:105D700047FC0FB000BD0000E5FFFFFF0A6802F816
:105D8000010B0A6070472DE9F05F824615468B468D
:105D900000270AF10104B9460078302801D09DB1EE
:105DA00013E014F8010B0127782803D0582801D0FC
:105DB00045B10AE00DB1102D07D1002714F8010BF1
:105DC000102502E0082500E00A250026B0460EE076
:105DD00005FB080005FB06F101271FFA80F801EB1F
:105DE0001046B6F5803F00D3B94614F8010B29469A
:105DF00000F077F80028EBDABBF1000F05D00FB107
:105E0000641E00E05446CBF80040B9F1000F06D004
:105E1000FFF734FF02210160C81EBDE8F09F48EA89
:105E20000640FAE70FB4002300B589B00CA9009131
:105E30000B99CB60214B7B440693214B7B4407930A
:105E400004236FF00042CDE901321E4A7A446B46CA
:105E50000892024600201AF032FF09B05DF814FBE8
:105E600070B506464FF0FF3015460C46324686B0F8
:105E70000091CDE9010169460020049004A8FFF7D4
:105E8000D1FF02460498211825B108B1084600E068
:105E900020462860049800280DD0002A02DD0098D2
:105EA000884208D03246081B69460094CDE90104B7
:105EB00004A8FFF7B7FF06B070BD0000C5000000E2
:105EC000DD0000008100000000487047B02900207C
:105ED00010B50446FFF766FA0068005D00F00100A7
:105EE00010BD3A2800D2303820F02002412A01D3D8
:105EF000A2F13700884201D34FF0FF30704742686B
:105F000042B1016811F8013B23B1521EC0E90012F1
:105F1000184670470121C160881E704742685AB117
:105F2000C368016843B983688B4205D0491E521C7F
:105F3000C0E90012002070474FF0FF3070477546EF
:105F4000FFF7C2FFAE4605006946534620F0070042
:105F5000854618B020B5FFF713FABDE820404FF092
:105F600000064FF000074FF000084FF0000B21F043
:105F70000701AC46ACE8C009ACE8C009ACE8C00910
:105F8000ACE8C0098D4670472DE9FF4F06468BB03F
:105F90000878FF2806D0491C2D2805D000244FF092
:105FA000000908E000200CE00124F8E709EB890370
:105FB000491C00EB43090878FF28F7D114B1C9F157
:105FC00000008146107800252C46AA4629462D2837
:105FD00001D02B2804D1521C2D2813D0002082463A
:105FE0008B461078FF280FD04FF0000C0A21521C6E
:105FF000A5FB017804FB018105FB0C11C5194BEBD6
:106000000104EEE70120EAE7002108464FF0000016
:10601000BAF1000F02D000EB80004008C0F38157B6
:10602000012F01DD4FF0FF370E9955EA040009EB0F
:1060300001080BD04FF0020918F5FA7F16DA4FEA83
:10604000CA70002F706008DD012007E04FEACA70B7
:10605000C6E900B00FB0BDE8F08F00203060FFF758
:106060000DFEC0F800901821084616E0B8F5FA7F3A
:1060700018DD002F02DAF748784401E0F64878444A
:10608000D0E90010C6E9001040EACA707060FFF75E
:10609000F5FDC0F80090142108460FB0BDE8F04FA0
:1060A0001AF023BD002108464FF00000B8F10001AE
:1060B000099002DAC7F1000200E03A4601DAC8F1BD
:1060C000000106A800F0E6F906AB93E8070003AB71
:1060D00083E8070044F23E005BEA04010090584662
:1060E00004D144F21E012C465D460091210C0904A6
:1060F000014306D10099240444EA15442D041039C3
:10610000009104F07F41014306D10099240244EA42
:1061100015642D020839009104F07041014306D145
:106120000099240144EA15742D01091F009104F01F
:106130004041014306D10099A40044EA9574AD00A2
:10614000891E009104F00041084304D100986D19A4
:106150006441401E00904FF001033A466846B8F192
:10616000000FCDE9014503A902DD00F0CEFE01E0FC
:1061700000F0A1FEBAF1000F04460D4601D084F0F4
:106180000044002108464FF00000099940F2FF77D3
:10619000484010F00C0F07D124F00040284303D0F2
:1061A000C4F30A50B84212D1FFF768FDC0F800905E
:1061B000C4F30A50B8420AD1A8487844D0E9001084
:1061C000C6E9001004F000410843706042E7C6E9E8
:1061D00000543FE72DE9FF4F1F464FF0000A4FF0F4
:1061E000FF38454691B0D7E90146CDF83CA0FFF70E
:1061F00041FDC0680168405C1090B96912986D1C3F
:106200008847396A814688470028F6D1B9F1FF3FAF
:106210000AD0002E24F4D06411DDB9F12B0F08D080
:10622000B9F12D0F0BD102E0404615B013E744F44D
:106230008064B96912986D1C8847761E8146600596
:1062400004A901D52D2000E02B20002E01F1010B27
:106250000DF130088DF810003FDDB9F1690F08D05D
:10626000B9F1490F05D0B9F16E0F02D0B9F14E0F57
:106270001CD13B4601A8009580E85002DDE91212CE
:106280006FF002001AF01FFDC11CCED10EE0B969FB
:1062900012986D1C884781461398761E44F400744A
:1062A00005600F98401C002E0F9016DDB9F1300FDD
:1062B000EDD0B9F1780F02D0B9F1580F0DD10F9888
:1062C00001280AD13B46CDE90054DDE91212001F36
:1062D00002961AF0F6FCC11CA7D1109989453ED14F
:1062E00044F0800406E01399681CAAF1010A44F402
:1062F00000740860B9696D1C1298761E88473028B2
:106300008146F0D02BE01099894505D1200603D4B1
:10631000761E44F0800418E0484606F027FB08B3D8
:10632000761E0DF123018B4544F4007408D2A9F1C7
:1063300030000BF8010B200607D5AAF1010003E09D
:10634000200602D40AF101008246A00502D5139965
:10635000681C0860B96912986D1C88478146002E38
:10636000D1DC53E0002E51DDB9F1650F02D0B9F157
:10637000450F4BD1A00549D5B9696D1C1298761E01
:1063800024F440748847002E81460CDD2B2804D06D
:10639000B9F12D0F07D144F48074B96912986D1CBE
:1063A0008847761E8146E00501D52D2100E02B218E
:1063B00008F8011BCDF8008021E0761E0DF13901AF
:1063C000884544F400740CD2A9F1300010F0FF00AD
:1063D00088F8000002D10099884509D908F1010820
:1063E00006E0E00501D51E4801E042F20F7082464A
:1063F000B96912986D1C8847814613980560002E74
:1064000004DD484606F0B2FA0028D6D1F9691298A0
:106410008847FF2053468BF8000088F800000020D2
:106420000A900B9004AA0CA90AA8FFF7ADFDA005DD
:1064300002D46FF00100F8E614F0240F12D0E00748
:106440001CD13868DDE90A12031D3B600068C0E911
:10645000001213E0F0EC0100E2EC0100A6EB0100F9
:10646000F1D8FFFF0AA9684605F01CFBE00705D13B
:106470003868009A011D3960006802602846D4E639
:1064800010B50446AFF300802046BDE81040FEF78B
:10649000C9BE00002DE9F047814616468AB035484E
:1064A00078440DC88DE80D0032487844801C03AC58
:1064B0000DC884E80D0041F69B300844372190FB5D
:1064C000F1F290FBF1F5A5F1800501FB12041B3CF4
:1064D00002D56442012000E00020DFF898A0804649
:1064E0000027FA44AAF1BE0A0EE0E0070AD03246BD
:1064F000684607EB470101230AEB810100F0F0FC3D
:106500008DE8070064107F1C002CEED1194F7F44EA
:10651000AE3F19E0E80715D007EB04100DF1180A9B
:1065200090E80E008AE80E00C068F04201D1981988
:1065300008903246012306A903A800F0D1FC03AB62
:1065400083E807006D10641C002DE3D14FF00103B8
:1065500032466946B8F1000F03A802D000F096FC5D
:1065600001E000F0BDFCC9E90001C9F808200AB04B
:10657000BDE8F08764BF01002DE9FF4F1F464FF0D3
:106580003C0987B04FF00042DDE9141001F1010829
:10659000DDF858A002EA40500390002005908346A1
:1065A000054604460490B969461E08988847AAF132
:1065B000010A0290BAF1000F3BDD02982E2815D097
:1065C0001021FFF78EFC00282EDB4FF0010B059900
:1065D000014317D0B9F1000F0BDB4A46C11700F099
:1065E000F5F905430C43A9F1040905E001200490E5
:1065F0000BE008B145F0010501200590049820B991
:10660000361D02E0049800B1361FB969089808F1F8
:1066100001088847BBF1000FAAF1010A0290C9D016
:106620000999C1F80080C5E70298702808D0502861
:1066300006D0F96908988847BBF1000F14D04FE0E5
:10664000002002900120BBF1000F049009D0B9692D
:10665000089808F101088847AAF10109B9F1000F6B
:1066600007DCF969089888476FF001000BB0BDE8B6
:10667000F08F2B2804D02D280CD14FF0FF30049040
:10668000B969089808F101088847A9F10109B9F129
:10669000000FE6DD411CE4D00A21FFF722FC0028B0
:1066A000DFDB029908F1010801EB810100EB4100F9
:1066B0000290B969089888470A21FFF712FC099AE5
:1066C000A9F10109B9F1000FC2F8008001DD00282D
:1066D000E7DAF969089888470499029800FB01668F
:1066E00055EA040004D004F04041090002D006E05D
:1066F000039898E0A40044EA9574AD00B61E04F037
:106700000041080002D16D196441761E159810F001
:10671000240F03D04FF00B095C4803E04FF0280929
:106720006FF07D008246564507DAAAEB06018944E0
:10673000B9F1410F01DD4FF0410901200021A9F11C
:10674000010200F043F9024628400B46214008436D
:1067500001D0012100E00021501E029143F1FF31E0
:1067600028402140084301D0012000E00020029988
:10677000834651EA0B014FD0002108464FF000003C
:10678000039900F4400039B100EB80004FF4400160
:1067900000EBD07001EA60008015012802DD4FF0A7
:1067A000FF3000E013D0401C36D0029860B3BBF13C
:1067B000000F0CD14A460120002100F007F92840C3
:1067C0002140084301D0012000E00020E0B1012079
:1067D0004A46002100F0FAF8034640190A46614192
:1067E0002D1A8C4111D3B9F1400F09DD159810F025
:1067F000240F02D0AAF1340603E0AAF1170600E044
:10680000761C00254FF0004406E05B1E42F1FF328B
:1068100020EA030521EA0204CAF10100B04206DAC7
:106820001B49039808430190002000900EE0039A52
:10683000C4F3D321E80A0A43164940EA44500A4304
:106840003146CDE90002684605F0BEF9159810F012
:10685000240F0BD01598C00715D13868DDE9001258
:10686000031D3B600068C0E900120CE002A8694605
:1068700005F018F91598C00705D13868029A011D6E
:106880003960006802604046F0E6000002FCFFFF4D
:106890000000F07F0000F03F2DE9FF4F92461D46BB
:1068A00085B04FF00041DDE9124BDDE914727F1E27
:1068B00001EA4B50414940F0FF4940EA01080021FC
:1068C00022F020004928049102D04E2828D04CE024
:1068D0003BA0012607C88DE80700A9690698641C3B
:1068E00088477F1E014606D41DF8060018B121F026
:1068F000200181420BD0E96906988847032E34D0E5
:10690000082E32D06FF0010009B0BDE8F08F761C80
:10691000032E01D0082EE0D1601CCAF80000DCE78D
:10692000A9690698641C88477F1E2AD420F020009D
:10693000412826D1A9690698641C88477F1E20D467
:1069400020F020004E281CD1A9690698641C8847B5
:106950007F1E48F4002849F48009CAF8004001D499
:10696000282806D0E969069888475FEACB7012D0DC
:1069700022E0A9690698641C88477F1E01D400287C
:1069800003DAE96906988847BCE72928F1D1641C35
:10699000CAF80040E9E71BF0240F07D028680499E3
:1069A000031D2B600068C0E9001805E02868021D7F
:1069B0002A600068C0F800902046A5E70000F07F3C
:1069C000494E46494E49545900000000B2F1200397
:1069D0000AD5C2F1200301FA02F120FA03F300FA0A
:1069E00002F041EA0301704700FA03F14FF00000A2
:1069F000704720F07F4C80EA030023F07F47ACEB28
:106A0000070303F57C5300F0004003F1FF032DE979
:106A100080494FEA154B09B44FEA144325EA0B4E5F
:106A200024EA03480FF2042606EB132749083E78B0
:106A30005FEA320203FB0667C7F5000707FB06F6AD
:106A40004FEA54374FEAD64606F1020607FB066CBA
:106A5000CCF1005C4FEA1C472CEA074C07FB06F41C
:106A60000CFB06F504EB15464FEA961634BF0020E2
:106A70004FF000404FEAD13706FB07FC4FEA1C4CB1
:106A80000CFB0BF7D21B03FB0CF761EB07010CFBB4
:106A90000EF7B0EB074072EB17420CFB08F734BF60
:106AA000A2EB0742B2EB074261EB17414FEA0C44FD
:106AB0004FEA910706FB07FC4FEA1C4C0CFB0BF757
:106AC000B0EBC74072EB573203FB0CF734BFA2EBBD
:106AD000C742B2EBC74261EB57310CFB0EF7B0EB8C
:106AE000C70072EB57720CFB08F734BFA2EBC7026A
:106AF000B2EBC70261EB5771039F4FEA816141EA34
:106B0000921104EBCC044FEAD1374FEA826206FBC4
:106B100007FC42EA90124FEA80604FEA1C4C0CFBE3
:106B20000BF7D21B03FB0CF761EB07010CFB0EF715
:106B3000B0EB074072EB17420CFB08F734BFA2EB37
:106B40000742B2EB074261EB17414FEA8C554FEA1F
:106B5000910704EB9C2406FB07FC4FEA1C4C0CFB42
:106B60000BF7B0EBC74072EB573203FB0CF734BFA7
:106B7000A2EBC742B2EBC74261EB57310CFB0EF7F9
:106B8000B0EBC70072EB57720CFB08F734BFA2EBF7
:106B9000C702B2EBC70261EB577115EB4C254FEA08
:106BA000816141EA92114FEA82624FEAD13742EAAB
:106BB000901206FB07FC44F100044FEA80604FEAA4
:106BC0001C4C0CFB0BF7D21B03FB0CF761EB070112
:106BD0000CFB0EF7B0EB074072EB17420CFB08F70B
:106BE00034BFA2EB0742B2EB074261EB174115EB52
:106BF0001C154FEA813141EA92414FEA823242EA62
:106C000090424FEA80304FEA0C7644F1000448EAA3
:106C100003434EEA0B484FF0000EB2EB080C71EB49
:106C2000030724BF624639464EEB0E0E4FF0000BB1
:106C30000018524149414BEB0B0BB2EB080C71EBC6
:106C400003077BF1000B24BF624639464EEB0E0E64
:106C50004FF0000B0018524149414BEB0B0BB2EBCC
:106C6000080C71EB03077BF1000B24BF6246394629
:106C70004EEB0E0E51EA020718BF46F0010616EB66
:106C80000E7655F1000254F1000103D5BDE88901EB
:106C9000BDE80088BDE88901BDE80048B619524149
:106CA00041EB0101A3F10103704780807F7E7D7C71
:106CB0007B7A7978777676757473727171706F6E8E
:106CC0006E6D6C6C6B6A6A69686867666665646439
:106CD000636362616160605F5F5E5E5D5D5C5C5BC3
:106CE0005B5A5A5959585857575656555555545432
:106CF000535352525251515050504F4F4F4E4E4D90
:106D00004D4D4C4C4C4B4B4B4A4A4A4949494848DB
:106D1000484747474746464645454544444444431B
:106D200043434342424242414141000046EA064653
:106D3000A3F570534FEA164646EA42564FEAD2226E
:106D400042EA415210B54FEAD121A3F1010300F00C
:106D50002FF820F0004000F1020C00F0004701EB9A
:106D600000501146BCF5006F40EA070000D210BD8C
:106D7000BAF1000F0AD01CB503B44FF004004FF075
:106D800004014FF000000FBCBDE810404FF00001BF
:106D9000BBF1010FB9BF04484FF0FF310348002198
:106DA00040EA070010BD00BFFFFFEF7F0000F07F4B
:106DB000002B9C4630D477002BD01CB54FEA370708
:106DC00003B44FF010004FF01001BAF1000F06D0DD
:106DD000BCF1000FDCBF40F0080040F008014FF0AC
:106DE00000000FBCBDE810400BF1010BBBF1010F1F
:106DF00008BF5FEA170722BF12F1010211F101017A
:106E00004FF0004143F1000300F0004043EA00006E
:106E10007047F9D35708D0E746EA064613F1400F0A
:106E20004FEA16461FDD13F1200FDFBF16430A4657
:106E3000002120335B42BED0C3F1200746EA06465C
:106E400002FA07F74FEA164646EA0706C3F120079B
:106E500022FA03F201FA07F721FA03F14FF00003D7
:106E600042EA0702A7E746EA020646EA06464FEA72
:106E7000164646EA0106BCBF46EA0646360C4FF007
:106E800000034FF000024FF0000194E72DE9804C21
:106E90009A46934670B491E8380007C831EA400C2E
:106EA00048BF34EA430C03D5FFF7A3FDFFF780FF8B
:106EB000F0BCBDE8008C2DE9804C9A46934670B436
:106EC00091E8380007C831EA400C48BF34EA430C67
:106ED00003D5FFF78EFDFFF729FFF0BCBDE8008C5E
:106EE0002DE9804C9A46934670B491E8380007C863
:106EF00010F0804F08BF13F0804F03D100F01AF854
:106F0000FFF756FFF0BCBDE8008C2DE9804C9A4697
:106F1000934670B491E8380007C810F0804F08BF5E
:106F200013F0804F03D100F005F8FFF7FFFEF0BC2F
:106F3000BDE8008C20F07F4780EA030023F07F4CFF
:106F400007EB0C03A3F57C5300F00040A3F1FE0314
:106F500092F0000F00F0B38095F0000F00F0778002
:106F60002DE901494FEA11404FEA144621EA004851
:106F700000FB06FC24EA064708FB06F607FB08F8B8
:106F800000FB07F718EB06484CEB164C4FEA124B88
:106F900018EB07484FEA15464CEB174022EA0B4E18
:106FA0000BFB06FC25EA06470EFB06F607FB0EFE6A
:106FB0000BFB07F71EEB064E4CEB164C4FF0000692
:106FC0001EEB074E4CEB174B18EB0B0840F1000083
:106FD00018EB0E0B58EB000840F100008F1A4FF031
:106FE00000013CBFC943661B14BFB5EB040C002174
:106FF0003CBFC943F61B4FEA17444EEA8E0E27EA00
:1070000004454FEA1C4704FB07622CEA074C05FBCA
:1070100007F70CFB05F604FB0CFC16EB074642EBEE
:10702000174216EB0C4642EB1C421BEB060658EBD4
:107030000202414146EA9E0601D5BDE80189B61922
:10704000524141EB0101A3F10103BDE801894FEA7F
:1070500014454FEA114724EA054621EA074C05FB8F
:1070600007F406FB07F70CFB06F105FB0CFC11EB24
:10707000074144EB17444FEA124711EB0C4144EB34
:107080001C4422EA074C05FB07F206FB07F70CFB42
:1070900006F605FB0CFC16EB074642EB174216EB17
:1070A0000C4642EB1C456A1854F1000148BF70477A
:1070B000B619524141EB0101A3F10103704795F06C
:1070C000000F37D04FEA11424FEA144721EA024637
:1070D00024EA074C02FB07F106FB07F70CFB06F45A
:1070E00002FB0CFC14EB074441EB17414FEA154738
:1070F00014EB0C4441EB1C4125EA074C02FB07F55D
:1071000006FB07F70CFB06F602FB0CFC16EB07462A
:1071100045EB174516EB0C4645EB1C42121951F195
:10712000000148BF7047B619524141EB0101A3F17C
:10713000010370474FEA14454FEA114724EA054618
:1071400021EA074C05FB07F106FB07F70CFB06F2EB
:107150004FF0000605FB0CFC12EB074241EB174118
:1071600012EB0C4251EB1C4148BF7047921841EBA7
:107170000101A3F10103704710B516F0FBFB0020DD
:1071800010BD000070B5044600688168C943C90796
:1071900017D1816821F00101816002F08DF9054667
:1071A0000AE000BF02F088F9401B022804D92068D9
:1071B0008068C043C00706D020688068C043C0070D
:1071C000F0D0002070BDA06A40F01000A062E06A1C
:1071D00040F00100E062012070BD10B50146406A38
:1071E000826A12F0500F05D0006A026BBDE81040B1
:1071F00008461047816A41F400718162016889681C
:10720000C1F3424107290CD1017B51B9816A21F4B4
:1072100080718162816AC90403D4816A41F00101ED
:10722000816201F00DFA10BD10B5406A816A41F02B
:1072300040018162C16A41F00401C16201F002FAB9
:1072400010BD10B5406A01F0FCF910BDF8B500267C
:107250000446009600688168C943C9072DD081683B
:1072600041F001018160164816490068B0FBF1F059
:1072700000E0401E00900028FBD102F01DF90546F9
:1072800016E000BF02F018F9401B022810D9206850
:107290008068C043C0070BD0A06A40F01000A06215
:1072A000E06A40F00100E06284F824600120F8BD4B
:1072B00020688068C043C007E4D10020F8BD00000A
:1072C000C409002040420F002DE9F0410C000546A2
:1072D0005CD05C2012F0ECFF286000283DD0206DCF
:1072E00012F0E6FF070038D0606C12F0E1FF0600F4
:1072F00033D03846216DFEF704FC3046616CFEF752
:1073000000FC23A012F04EFF217824A02A6812F07E
:1073100049FF29A012F046FF2968207808702968E3
:10732000606848602968254888602968606A486202
:107330002968206A086229682148C86029682148AC
:10734000086129682048486129682048C86129687F
:107350001F488861E06C20B104E0BDE8F04112F004
:10736000C1BBE764206C00B926642868242204F1BC
:1073700038013830FEF78BFB2868A16A2C34816213
:10738000286894E80E002C3080E80E00BDE8F081FB
:107390005B442F6477696E5D20000000406E6F745F
:1073A000653A4477696E4F626A6563745B25645D14
:1073B000203D2030782570000A00000009F3010804
:1073C000CD820008557D0008C17C0008317A000894
:1073D000057D00082DE9F0410C0005465FD06C20CA
:1073E00012F066FF286008B912F07CFB206E12F0E4
:1073F0005FFF070036D0606D12F05AFF060031D0F3
:107400003846216EFEF77DFB3046616DFEF779FB55
:107410002078012800D9012029680870296860684F
:1074200048602968A06A88622968E06AC862296899
:10743000206A08622968606A486229681948886079
:1074400029682069086129681748C86029681748B1
:10745000486129681648886129681648C861E06D46
:1074600020B104E0BDE8F04112F03CBBE765206DBF
:1074700000B926652868242204F148014830FEF747
:1074800006FB303428680ECC303080E80E0074E8FB
:107490000F122868C0E90F122968606C4864BDE8C3
:1074A000F081000009F301085DAD0008B5AB0008EC
:1074B00049AC0008A1AC000810B512F043FE034827
:1074C00001F0DCFBBDE8104012F05ABE9C18002011
:1074D00010B512F037FE034801F0D0FBBDE81040B4
:1074E00012F04EBE341A002010B512F02BFE0348E5
:1074F00001F0C4FBBDE8104012F042BEF0190020BC
:1075000010B512F01FFE034801F0B8FBBDE81040B3
:1075100012F036BE2419002010B512F013FE0348F5
:1075200001F0ACFBBDE8104012F02ABEE0180020CC
:1075300010B512F007FE034801F0A0FBBDE81040B3
:1075400012F01EBE6819002010B512F0FBFD0348B2
:1075500001F094FBBDE8104012F012BEAC190020FF
:1075600030B590F840500124AC40C56B6C600468A5
:1075700063604368102B036803D099600068C260A1
:1075800030BD9A600068C16030BD00002DE9FE4347
:107590008946016C0546C66A8879022803D2B1F88B
:1075A000070040BA06E0D1F80700897A00BA20F057
:1075B000FF00084319F0BCF8214918F0D7FF0290EA
:1075C000A9F11E00C4B20320B4FBF0F8002E34D0A1
:1075D000032C02D3E41EE4B2FAE74A4602A9284685
:1075E00009F07CFA0746C8EBC80006EB8000A03023
:1075F00002D0029940F8241012A012F0D3FD029894
:1076000018F014FFCDE9000122463946104812F067
:10761000C9FD10A012F0C6FD0422002102A809F045
:1076200063FB072F06D02C6A24B102AB4A463946C9
:107630002846A047284600F07FFCBDE8FE830000F6
:10764000000020415B442F6477696E5D20000000DC
:10765000CC2402080A00000070B5C46A006C81796D
:10766000022903D2B0F8070041BA06E0D0F80710AB
:10767000807A09BA21F0FF010143CEB2002C39D043
:10768000A6F1F000042827D2DFE800F0021B1D1F3E
:107690005FF00005C5EBC50004EB800000219830C9
:1076A00016F082FE6D1CEDB2032DF3D3D4F89400D6
:1076B0000021016081808171208820F4FE402080BB
:1076C0000AE0042002E0022000E00320D4F8941035
:1076D0000A5C6AB100220A5407A012F063FD314629
:1076E00008A012F05FFDBDE8704013A012F05ABD73
:1076F0000122F0E770BD00005B442F6477696E5D86
:1077000020000000406E6F74653A65786527447705
:10771000696E5F427574746F6E4576656E7448610C
:107720006E646C65272C625F76616C75653A252303
:10773000782E0D0A000000000A00000010B5006C51
:107740008179022903D2B0F8070041BA06E0D0F8E7
:107750000710807A09BA21F0FF010143CCB2074833
:107760000BF066FC06A012F01DFD214607A012F0EA
:1077700019FDBDE8104012A012F014BD780A0020D7
:107780005B442F6477696E5D20000000406E6F746B
:10779000653A657865274477696E5F436C65617209
:1077A000486973746F727944617461272C6B6579D1
:1077B0005F636F64653A2523782E0D0A0000000090
:1077C0000A000000FEB50746C16A006C8279022AF1
:1077D00003D2B0F8070042BA06E0D0F80720807A5A
:1077E00012BA22F0FF020243364ED5B2002968D009
:1077F0000D7115F00F04284603D0142805D2093462
:1078000014E0012101EB101410E0212D01D20B3402
:107810000CE0242D01D20C3408E0312D01D20E34BD
:1078200004E0342D01D20D3400E00F341B2C00D9BC
:107830000124A021B01CFEF764F9234A07CA8DE891
:10784000070068460DF10A0105E00278AA4201D15D
:10785000407803E0801C8842F7D3FF20307000207E
:1078600070701A481A4902460BF0F2FB3078FF2874
:1078700016D0002506EB850004220021801C09F0AB
:1078800033FA6D1CEDB2282DF4D3A023FD68B21C91
:107890004FF480413846A847796A09B105208847E6
:1078A0000CA012F07FFC21460DA012F07BFC1BA067
:1078B00012F078FC7A6903B021463846BDE8F04002
:1078C0001047FEBDD4090020CC0D0208780A002024
:1078D000B10B01085B442F6477696E5D20000000E6
:1078E000406E6F74653A657865274477696E5F43CB
:1078F00075725F4F7065726174655F446973746916
:107900006E6775697368272C737769746368207074
:107910006167653A202523780D0A00000A000000FF
:107920002DE9F0410646006C8179022903D2B0F8B6
:10793000070041BA06E0D0F80710807A09BA21F0B2
:10794000FF010143F76ACDB2002F29D015A012F034
:1079500029FC174C294617A0227812F023FC23A0FB
:1079600012F020FCD7F89410002211F8440F08B14F
:107970000A70227005200E4B486020785B1C1F5C4B
:10798000AF420CD1401C2070D878A84208D10A70B0
:10799000227030467269BDE8F0411B211047227009
:1079A000BDE8F0815B442F6477696E5D20000000C4
:1079B00060040020406E6F74653A657865274477EF
:1079C000696E5F446576656C6F7065724D6F646556
:1079D000272C6B65795F636F64653A2523782C6388
:1079E0006F756E743A2523782E0D0A000A00000088
:1079F0007CB504460022186800920192042903D243
:107A00004FF48071ADF80010CDF80200E568062350
:107A10006A464FF4A0412046A847616A3220884751
:107A200062691F2120469047616A322088477CBDE9
:107A3000C80404D5C843401C404200B2704708B295
:107A40007047000010B5016C88B0CA798DF8142019
:107A5000097A8DF81510016C497A8DF81610016CB1
:107A6000897A8DF81710016CC97A8DF81810016C9D
:107A7000097B8DF81910006C407B8DF81A0005A861
:107A800016F0AAFD11490446C86011A012F08AFB45
:107A90009DF817000DF1040C9DF81A309DF819207F
:107AA0009DF818108CE80F009DF8160000909DF8C6
:107AB00014209DF815302146084802F5FA6212F0AC
:107AC00071FB07A012F06EFB08B010BD600400202F
:107AD0005B442F6477696E5D20000000202402085B
:107AE0000A00000010B505A012F05CFB06A012F021
:107AF00059FBBDE810400EA012F054BB5B442F644C
:107B000077696E5D20000000406E6F74653A65789D
:107B100065274477696E5F4765745F5274635F469B
:107B2000726F6D5F4E6574776F726B272E0D0A0052
:107B30000A0000002DE9FE430546006C0C468179E1
:107B4000022903D2B0F8070041BA06E0D0F80710C6
:107B5000807A09BA21F0FF010143EA6989B2284617
:107B60009047EE6A18F0E4FD324918F0FFFC0290ED
:107B7000002E5DD01E2C5BD2224602A9284608F0BA
:107B8000ADFF8046182C0FD206EB84010298886066
:107B900029A012F007FB029818F048FCCDE900017B
:107BA0002246414627A013E0A4F11800C7B2072FD0
:107BB00003D206EB8701029888671FA012F0F2FA41
:107BC000029818F033FCCDE900013A4641462DA059
:107BD00012F0E8FA2AA012F0E5FA0422002102A825
:107BE00009F082F84046B8F1070F07D02E6AAEB10F
:107BF000014602AB22462846B0470FE0002001466E
:107C0000C0EBC00206EB8202401C42F8981FC0B2D3
:107C100051600328F4D3284600F08EF9286B042322
:107C200000EB0410EC68008802AA81B22846A04745
:107C3000BDE8FE83000020415B442F6477696E5DE0
:107C400020000000406E6F74653A657865274477C0
:107C5000696E5F4C696D697448616E646C65272C50
:107C60006572726F725F636F64653A2523782C6C5E
:107C7000696D69745B2523785D3A20252E33660D86
:107C80000A000000406E6F74653A65786527447796
:107C9000696E5F4C696D697448616E646C65272C10
:107CA0006572726F725F636F64653A2523782C7317
:107CB00074645B2523785D3A20252E33660D0A0017
:107CC0001EB40DA31CCB8DE81C000A0A8DF80820F9
:107CD0008DF8091000214165C16C009A0A60019A73
:107CE0004A60BDF808200A81416D0A31416541684A
:107CF00003B010BC084700005AA5098200845A014D
:107D00000000000010B5040022D000F047F807285A
:107D10001ED1206C0021A28E808840BA10E0236B17
:107D200003EB01131B68834208D10C20226B00EB8C
:107D30000110125832B12046904703E0491CC9B2E5
:107D40008A42ECD8A16C206CFDF7DBFE0020A06419
:107D500010BD00003CB40FA4D4E90034CDE90034D8
:107D60000B0A8DF804308DF805108DF806200021DF
:107D70004165C16C009A0A60BDF804208A809DF8B4
:107D800006208A71416DC91D4165416802B030BC51
:107D9000084700005AA506830000000070B504469D
:107DA00033A012F0FFF935A0A16C12F0FBF938A056
:107DB00012F0F8F9002506E0206C415D35A012F0C4
:107DC000F1F96D1CEDB2A06CA842F5D833A012F009
:107DD000E9F9206C01785A2902D14178A5290AD005
:107DE00023A012F0DFF92FA012F0DCF928A012F086
:107DF000D9F9002070BDD4E91121914201D20529A1
:107E00000BD21BA012F0CEF930A0A16C12F0CAF96F
:107E10001FA012F0C7F9052070BD491F89B24FF6A7
:107E2000FF72C01C0CF0F6F80546A16C206C0844EB
:107E300030F8020C40BAA84218D10DA012F0B2F9E5
:107E40002CA012F0AFF912A012F0ACF908A012F0B9
:107E5000A9F9280A40EA052082B22EA0A16C12F0EE
:107E6000A1F90BA012F09EF9012070BD072070BD92
:107E70005B442F6477696E5D200000000D0A647713
:107E8000696E5F72785F6275665B25645D3A0000BB
:107E90000A00000025303258200000000D0A0D0AAB
:107EA00000000000406572726F723A50726F746F1A
:107EB000636F6C206672616D6520686561646572D0
:107EC000206572726F722E0D0A000000406572729A
:107ED0006F723A44617461206C656E6774682065E6
:107EE00072726F722C6375725F6C656E3A202564D6
:107EF0002E0D0A00406572726F723A6372632063DE
:107F00006865636B20636F6465206572726F722EA3
:107F10000D0A00006477696E5F7278636F756E7426
:107F2000203D2025642C6372633136203D2030785B
:107F300025582E0D0A00000070B5C46A002C2DD003
:107F40005FF00005C5EBC50004EB80000021983010
:107F500016F02AFA6D1CEDB2032DF3D320884FF6EC
:107F6000FF7200F400402080F02120460CF052F80F
:107F7000C4F8F0000EF034FFF422214608480EF059
:107F8000F0FF08A012F00EF909A0D4F8F01012F0DA
:107F900009F9BDE8704010A012F004B970BD0000EE
:107FA00000F807085B442F6477696E5D20000000CD
:107FB000406E6F74653A4477696E4F626A656374A8
:107FC000207361766520706172616D2C6372633A13
:107FD000202523780D0A00000A00000038B5044669
:107FE000B0F854004FF6FF72C01E81B2E06CC01CA6
:107FF0000CF010F8ADF80000616DE06C0844BDF8BD
:1080000000100180606D801C606582B2E16CA06B25
:1080100002F070FB03E0616A09B101208847A06BA0
:1080200000680068C0434006F5D438BD2DE9FE4F16
:10803000016CC56A8A79022A03D2B1F807104ABADC
:1080400006E0D1F80720897A12BA22F0FF020A432B
:1080500002F0FF08002D7DD02979012202EB1111D9
:108060008A1E12F0FF0621D04FEA0107C6EBC602B6
:1080700005EB820909F19804A346B8F1F10F17D076
:10808000B8F1F00F66D1426990470021584616F0CA
:108090008BF94FA012F086F8324641464FA012F0FD
:1080A00081F8BDE8FE4F5CA012F07CB80027DDE748
:1080B0004269904709F1A000816811F0FF4F01D19A
:1080C0005649816080684FF07E5118F0DBF918F056
:1080D0000FFB07EB87034FF05C0AD5F894200AEBFF
:1080E000830150504FBBD5F89400603002E0C96D59
:1080F00001611430D5F8941001F188028242F6D85B
:1081000033A012F04FF846A012F04CF842A012F043
:1081100049F84DA012F046F85FF0000707EB870220
:10812000D5F894100AEB82000A58394649A012F09B
:1081300039F87F1CFFB2032FF0D3D9F8A00018F054
:10814000D7FA1822D5F8941002EBC6024FF48079C2
:10815000885000E03AE02EB1012E06D0022E07D062
:10816000002007E0A4F8009005E04FF4806001E0F3
:108170004FF4A060208016A012F014F837A012F07F
:1081800011F825A012F00EF843A012F00BF8D5F864
:10819000947006EB86054C2000EB8500385818F0EB
:1081A00045F923880AEB850402463C59CDE9004392
:1081B0000B46CDF8088031463FA011F0F3FF03B025
:1081C00049465846BDE8F04F16F0EEB8BDE8FE8FC0
:1081D0005B442F6477696E5D20000000406E6F7411
:1081E000653A657865274477696E5F43616E6365BC
:1081F0006C48616E646C65272C63616E63656C3AD4
:108200002523782C73797374656D20736974653ACE
:108210002523782E0D0A00000A0000000000A0406F
:1082200009095B2D2D2D2D4477696E5F537572659D
:1082300048616E646C652D2D2D2D5D0A7369746522
:1082400009706F696E7400002D2D2D2D092D2D2DB7
:108250002D2D0A0025640925640A000009095B2DFB
:108260002D2D2D4477696E5F5375726548616E647C
:108270006C652D2D2D2D5D0A7369746509636F6D15
:10828000705F76616C09706F696E740973656E73E7
:108290006F720973757265002D2D2D2D092D2D2DF1
:1082A0002D2D2D2D2D092D2D2D2D2D092D2D2D2D46
:1082B000092D2D2D2D0A0000256409252E33660970
:1082C000092564092523780925640A007CB51D4623
:1082D000134614A20446D2E90002CDE90002681D4B
:1082E0008DF80200080A8DF804008DF805100020B2
:1082F0006065E06C00992A460160BDF80410818039
:10830000606D801D6065E16C08441946FDF776FBE1
:10831000606D28446065616802B02046BDE8704029
:10832000084700005AA500820000000010B511F0B7
:1083300009FF012000F0A6FFBDE8104011F020BFAA
:1083400010B511F0FFFE4FF4806000F09BFF4FF47A
:10835000006000F097FF4FF4805000F093FF4FF45F
:10836000005000F08FFF4FF4804000F08BFF4FF47F
:10837000004000F087FFBDE8104011F001BF10B5CC
:1083800011F0E0FE022000F07DFFBDE8104011F08A
:10839000F7BE10B511F0D6FE042000F073FFBDE863
:1083A000104011F0EDBE10B511F0CCFE082000F029
:1083B00069FFBDE8104011F0E3BE10B511F0C2FE38
:1083C000102000F05FFFBDE8104011F0D9BE10B5DD
:1083D00011F0B8FE202000F055FF402000F052FFC1
:1083E000802000F04FFF4FF4807000F04BFF4FF4FF
:1083F000007000F047FFBDE8104011F0C1BE72B63A
:10840000FEE7000006490020C8610648016941F006
:1084100004010161016941F0400101617047000000
:108420009029002000200240064A0021D16106491F
:108430000A6942F002020A614861086940F040009E
:10844000086170479029002000200240044B002260
:10845000DA61044A136943F0010313610180704734
:10846000902900200020024014480022C168CB0659
:10847000134904D5CA6942F00202CA611022C368D6
:108480005B0705D5CB6943F00103CB6142F00402E1
:10849000C369DB0707D0CB6943F00403CB61C16933
:1084A00021F00101C161A2F58071013901D0C260E2
:1084B0007047C16921F00101C1617047002002408D
:1084C0009029002070B5054600F0F6FF0646114CD5
:1084D00009E0681C07D025B100F0EEFF801BA84220
:1084E00001D9032070BDE068C007F2D1E0688006C2
:1084F00001D52020E060E068C00605D4E069C0072F
:1085000002D1E068400703D5FFF7AEFF012070BD40
:10851000002070BD002002400021084A0E2801D929
:108520000020704702EB8000054A02E050F8383B1B
:1085300019449042FAD3C808704700003011002057
:10854000F0120020F8B50024009490F8242025466D
:10855000012A12D0012280F824204A681F23072A0A
:108560000DD20668776B521E02EB820293409F4346
:108570000B6893401F43776319E00220F8BD06683B
:108580000D2A0AD2376BD21F02EB820293409F431F
:108590000B6893401F43376309E0F76A0D3A02EB1B
:1085A000820293409F430B6893401F43F7620A681F
:1085B000072306680A2A0AD3F7680A3A02EB42023E
:1085C00093409F438B6893401F43F76008E03769EF
:1085D00002EB420293409F438B6893401F433761F5
:1085E0000A68102A01D0112A20D1124B02689A423F
:1085F00017D193681B0219D4936843F40003936066
:108600000968102912D10C490C4A0968B1FBF2F132
:1086100001EB8101490000E0491E00910029FBD1D6
:1086200004E0816A41F020018162012480F8245035
:108630002046F8BD00240140C409002040420F003C
:1086400070477047704700002DE9F04104004FF07B
:1086500000057FD0A06A002628B9E66284F824606D
:10866000204600F081F82046FEF78CFDA16AC9067D
:1086700000D420B1A06A40F01000A0626AE0A16AB4
:1086800021F4885141F00201A162334923688B42F1
:10869000E16904D1B1F5402F01D14FF40021277BCE
:1086A0004FF4807C41EA470261680A43A168614552
:1086B00008D0012906D0002194F814E0BEF1010F82
:1086C00002D00AE06146F7E7C7B1A76A47F0200782
:1086D000A762E76A47F00107E7625F6827F4694726
:1086E0000F435F60236899681C4F394011439960BC
:1086F000A16861450BD0012909D00CE0DFF860E0EA
:10870000A7690EEB47370F4347F40061E5E7218A7D
:108710000D05A5F580152168CB6A23F470032B4362
:10872000CB62216889680F4B1940914208D1E662FB
:10873000A16A21F0020141F00101A162BDE8F081CE
:10874000A06A20F0020040F01000A062E06A40F051
:108750000100E0620120F1E7003C0140FDF7E1FF8C
:1087600000E0FFFFFE0E1FFF70B586B00026054635
:1087700000960196029603960068294988424CD1DA
:108780002849886940F400708861886900F40070A5
:108790000490886940F010008861886900F010003A
:1087A0000490886940F004008861886900F0040042
:1087B0000490886940F0080088618869032400F00B
:1087C000080004903F20CDE900046946164800F0F7
:1087D00065FDCF20CDE900046946144800F05EFD38
:1087E000009469461248019400F058FD124C11485B
:1087F000C4E900068020C4E9026080002061800096
:1088000060612020A061C001E061204600F05AFBB9
:1088100008B1FFF7F4FD2C62656206B070BD000080
:1088200000240140001002400010014000080140F7
:10883000000C0140080002409C1800202DE9F04780
:10884000894604463B4900683B4F0E1D90468842CE
:1088500001D0B84207D1306810F4702F03D0012541
:108860002846BDE8F08794F8240001280CD00120A8
:1088700084F824002046FEF7E9FC05004FF00000D4
:1088800004D084F82400EBE70220EAE7A16A40F66E
:108890000162914341F48071A1622168B94218D10B
:1088A000326812F4702F14D0A16A41F48011A162D1
:1088B0003168490505D5A16A21F4005141F4805180
:1088C000A162A16AC9040AD5E16A21F00601E16248
:1088D00006E0A26A22F48012A2624968E9E7E06237
:1088E00084F82400216A15488862216A1448C86205
:1088F000216A1448086321686FF00200086020684C
:10890000816841F480718160216843464A464C3158
:10891000206A00F015FB20688168C1F342410729F5
:10892000816803D041F48011816099E741F4A0018E
:10893000FAE700000024014000280140DB71000834
:10894000437200082972000870B54379012B1CD0CE
:10895000012646710223037105682B6802F010049A
:1089600040F6FE72A2409343D1E900210A43A2409F
:108970001A432A6001680A68C023A3409A430A6028
:10898000067100214171084670BD022070BD70B5AE
:10899000040003D02079002510B105E0012070BD4E
:1089A0006571204600F008F8022020712561012041
:1089B0002071002070BD000000B585B0002100913D
:1089C00001910291039100680E49884218D10E4826
:1089D000C16941F00051C161C16901F000510491C8
:1089E000816941F0040181618069694600F00400F9
:1089F00004903020009003200190044800F04EFCC9
:108A000005B000BD007400400010024000080140A5
:108A100018B5046800940068104421B11430009027
:108A20000360002018BD0830F9E770B54279012ACB
:108A30001ED001224271022303710468266801F0EE
:108A4000100302FA03F52E4326600029016811D0B5
:108A50000C6804F470153C249C40A54203D14B687B
:108A600043F002034B60027100214171084670BD62
:108A7000022070BD0B68C3F383030F2BF3D14B6847
:108A800043F00103EEE710B590F82110002202290F
:108A900005D00421816380F82020012010BD0168E9
:108AA0000B6823F00E030B6001680B6823F00103D1
:108AB0000B6090F84030C46B012101FA03F363604E
:108AC00080F8211080F82020104610BD2DE9F05FBD
:108AD00090F821100024022903D00421816301248D
:108AE00085E001680A6822F00E020A6001680A68DF
:108AF00022F001020A603F4E3E4FB215DFF8F4C08B
:108B0000DFF8F090DFF8ECA0DFF8E8B0DFF8E4E0A1
:108B10000168783F13011502ACF1640CA9F150090A
:108B2000AAF13C0AABF1280BAEF1140E4FF48018F9
:108B3000B14227D9B9420ED0614512D049451DD066
:108B4000514518D0594518D0714501D1424615E01C
:108B5000294EB14201D1012210E0274E1436B14214
:108B600001D110220AE0244E2836B14206D0224A12
:108B70003C32914201D11A4600E02A461E49091FA3
:108B80000A602BE0B94213D0614517D0494522D085
:108B900051451DD059451DD0714501D142461AE0BD
:108BA000B14202D14FF0807215E0134EB14201D1B3
:108BB000012210E0104E1436B14201D110220AE019
:108BC0000D4E2836B14206D00B4A3C32914201D1BB
:108BD0001A4600E02A46074980394A60012180F898
:108BE0002110002180F82010416B01B188472046F8
:108BF000BDE8F09F800002400804024010B5D0B1EB
:108C000001680A6822F001020A600268002111600E
:108C100002685160026891600268D160144C026879
:108C20001423A24209D2134C2244B2FBF3F2920065
:108C30000264114A0AE0012010BD0D4C6442224436
:108C4000B2FBF3F292000264094A083AC26390F858
:108C5000403001229A40C36B5A608162C162016355
:108C60004163816380F8211080F82010002010BD3E
:108C700008040240F8FFFDBF000002402DE9F05F4C
:108C8000C16B0A6801680B68046C4FF0040808FAAD
:108C900004F8844D844E854FDFF814C2DFF8149237
:108CA000DFF814A2DFF814B2DFF814E218EA020FBA
:108CB00065D05FEA437862D50A68920603D40A68F1
:108CC00022F004020A60DFF8F0814FF4806201684C
:108CD00008F1140813011402414524D9A9420DD00A
:108CE000B1420FD0B9421AD0614515D0494515D0CF
:108CF000514501D1120312E0594501D104220EE081
:108D0000714501D140220AE06D4D1435A94206D0CB
:108D10006B4A2832914201D11A4600E02246674947
:108D2000091F0A6029E0A94213D0B14215D0B94207
:108D300020D061451BD049451BD0514502D14FF48D
:108D4000800217E0414502D14FF0806212E05945A0
:108D500001D104220EE0714501D140220AE0584DB4
:108D60001435A94206D0564A2832914201D11A46FA
:108D700000E022464B4908394A60C16A71E04FF071
:108D8000020808FA04F818EA020F70D05FEA837844
:108D90006DD50A68920606D40A6822F00A020A60B3
:108DA000012180F82110DFF810814FF40072016872
:108DB00008F1140813011402414524D9A9420DD029
:108DC000B1420FD0B9421AD0614515D0494515D0EE
:108DD000514501D1120312E0594501D102220EE0A2
:108DE000714501D120220AE0354D1435A94206D043
:108DF000334A2832914201D11A4600E022462F49D7
:108E0000091F0A6029E0A94213D0B14215D0B94226
:108E100020D061451BD049451BD0514502D14FF4AC
:108E2000001217E0414502D14FF0007212E059459F
:108E300001D102220EE0714501D120220AE0204D2D
:108E40001435A94206D01E4A2832914201D11A4651
:108E500000E02246134908394A60002180F82010BA
:108E6000816A00291CD0BDE8F05F0847FFE70825AC
:108E7000A540154214D01A0712D50A6822F00E0236
:108E80000A6090F84020C36B012101FA02F25A6097
:108E9000816380F82110002180F82010016BE0E749
:108EA000BDE8F09F080002401C0002403000024074
:108EB00044000240580002406C0002400804024096
:108EC0001C04024030B560B11A4B026814219A426A
:108ED00009D2194B1344B3FBF1F18900016417491E
:108EE0000AE0012030BD134B5B421344B3FBF1F1A8
:108EF000890001640F490839C163022180F82110FB
:108F0000136843F6F0718B43F0E901142143D0E973
:108F100002452C4321430469214344692143846968
:108F200021431943116000214163012242770177F7
:108F3000084630BD08040240F8FFFDBF00000240B3
:108F400070B5044690F82000002501280CD00120BF
:108F500084F8200094F821600020012E06D084F8C7
:108F600020000225284670BD022070BD022684F82C
:108F70002160A0632068066826F00106066020468E
:108F8000FEF7EEFAE06A00282068016802D041F09E
:108F90000E0106E021F0040101602068016841F043
:108FA0000A0101602068016841F001010160D9E710
:108FB00031B514F085F820B10098BDE8384013F0C1
:108FC000FFBF00244FF47A7503E0284611F06EF8D5
:108FD000641C00988442F8D338BD00002DE9F047A6
:108FE000054626480F460126017E01290FD00121A2
:108FF000814601762868DFF888804CF250340228D8
:1090000008D0A2462046FFF75DFAA8B131E0022061
:10901000BDE8F0872046FFF755FA08BB0120FFF7AF
:10902000F1F92046FFF74EFAD8F81010064621F065
:109030000401C8F810101CE04FF0FF303860AC6835
:1090400011E02046FFF7F0F95046FFF73BFAD8F859
:109050001010060021F00201C8F8101001D03C6089
:1090600007E004F50064D5E9020100EBC120A0424D
:10907000E7D8002189F818103046C9E79029002068
:10908000002002400348016941F080010161002095
:1090900070470000002002402DE9F05F07461C48A1
:1090A00088460024017E15461E46012909D001216B
:1090B000814601764CF2503A5046FFF703FA18B158
:1090C00022E00220BDE8F09F012F02D0022F00D045
:1090D0000427D346DFF83CA0220128463146FCF79E
:1090E000E0F981B208EB4400FFF7B0F95846FFF70A
:1090F000E9F9DAF8102022F00102CAF8102018B9B4
:10910000641CE4B2BC42E7D3002289F81820D9E7F6
:109110009029002000200240064900200A6912061A
:1091200007D5054A4A60054A4A600969090600D51B
:10913000012070470020024023016745AB89EFCD35
:109140002DE9F04300233E4F0F2574E001229A40A1
:109150000A406ED023F00304E619D6F808809C0775
:109160004FEA147C05FA0CF909EA0804DFF8D48008
:10917000404502D14FF0000824E0DFF8CC804045A4
:1091800002D14FF001081DE0DFF8C080404502D158
:109190004FF0020816E0DFF8B880404502D14FF0EA
:1091A00003080FE0DFF8AC80404502D14FF004081F
:1091B00008E0DFF8A480404502D14FF0050801E047
:1091C0004FF0060808FA0CF8A04515D1D6F808C0EB
:1091D0002CEA090CC6F808C0204E34689443346069
:1091E000341D266896432660241D26689643266013
:1091F000241D266896432660FF2A01D8064601E012
:1092000000F104064FEA830401D9A4F12004D6F842
:1092100000C005FA04F82CEA080C4FF0040808FA1C
:1092200004F84CEA080CC6F800C0C46824EA02043A
:10923000C46003F1010331FA03F287D1BDE8F08382
:109240000000014000080140000C014000100140F6
:109250000014014000180140001C014000040140BE
:1092600010B504F041FC00EB4001054800EB810023
:109270004168002903D08068BDE81040084710BD50
:1092800060060020044910B50A68024202D0086056
:10929000FFF7E6FF10BD0000140401402DE9F84F70
:1092A000DFF8C891002409F1040A0AF1040B2346EF
:1092B0000F270BF1040ED1E00125A54006EA0502B7
:1092C000AA4276D1DFF8A8C14E68A6EB0C08664525
:1092D0002BD00DDC032E34D005DC36B3012E19D093
:1092E000022E2FD11BE0112E16D0122E2AD119E0FA
:1092F000B8F5881F19D006DCB8F5803F15D0B8F551
:10930000801F1FD111E0B8F5001F0ED0B8F5041F63
:1093100018D10AE0CB6815E0CB681B1D12E0CB68C2
:1093200008330FE0CB680C330CE08B682BB1012BBA
:109330004FF0080303D0456104E0042302E0056117
:1093400000E00023FF2A01D8064601E000F10406F0
:109350004FEA840501D9A5F12005D6F8008007FA67
:1093600005FC28EA0C0803FA05F548EA0508C6F8E2
:1093700000804D68ED0070D53E4DAE6946F00106A7
:10938000AE61AD6924F0030605F0010500953A4D84
:1093900006EB050CDCF80850A607360F07FA06F8AE
:1093A00025EA0805DFF8D480404503D14FF00008D6
:1093B00025E052E0DFF8C880404502D14FF00108B7
:1093C0001DE0DFF8C080404502D14FF0020816E0F2
:1093D000DFF8B480404502D14FF003080FE0DFF81A
:1093E000AC80404502D14FF0040808E0DFF8A080CF
:1093F000404502D14FF0050801E04FF0060808FA99
:1094000006F848EA0508CCF808804D68D9F80060ED
:10941000ED034D4601D5164300E096432E604D689E
:10942000DAF80060AD03554601D5164300E09643D7
:109430002E604D68DBF80060ED025D4601D51643F5
:1094400000E096432E604D68DEF80060AD02754680
:1094500001D5164300E096432E60641C0A68164648
:10946000E2407FF429AFBDE8F88F0000000401401E
:1094700000001110001002400000014000080140EF
:10948000000C014000100140001401400018014090
:10949000001C01408068084000D001207047C2686D
:1094A00021EA02030A4043EA0241016170470AB11E
:1094B000016170470904FBE700B54FF0E020006947
:1094C000C00301D500F006F80148006800BD0000A7
:1094D000D009002003480168034A12681144016062
:1094E00070470000D009002058060020074810B53A
:1094F000016841F010010160032000F06BF80F20BB
:1095000000F006F800F00AF8002010BD002002402C
:1095100010B510F0B3FD002010BD00000C4808B5D8
:10952000816941F001018161816901F001010091CE
:10953000C16941F08051C161C06900F08050009064
:109540000448416821F0E06141F00071416008BDCC
:10955000001002400000014000280DDB00F01F0257
:10956000012191404009800000F1E020C0F8801105
:10957000BFF34F8FBFF36F8F7047002809DB00F0F8
:109580001F02012191404009800000F1E020C0F855
:1095900000117047F0B40E4B1B680C46C3F3022356
:1095A000C3F10705042D00D90425191D072901D28F
:1095B000002300E0DB1E012606FA05F1491E2140CA
:1095C00099409E40761E16403143F0BC02F04ABAE4
:1095D0000CED00E0064900F0070208684FF6FF03B3
:1095E000184040EA0220034A104308607047000018
:1095F0000CED00E00000FA052DE9F843054600787F
:10960000354CC00754D0E0690026C00008D4E0699A
:1096100040F08050E061E069012600F08050009049
:109620002E480168C90512D40168804641F4807152
:109630000160FFF741FF074605E000BFFFF73CFF71
:10964000C01B642823D8D8F80000C005F6D5206ACE
:1096500010F4407021D0A98801F4407181421CD0DF
:10966000206A1F49012220F440700A6000220A602B
:109670002062C00711D0FFF71FFF074641F288386C
:1096800008E000BFFFF718FFC11B414502D90320C6
:10969000BDE8F883206A8007F4D5206A696820F461
:1096A0004070084320621EB1E06920F08050E06104
:1096B0002878800705D56068A96820F440400843F1
:1096C00060602878C00605D56068696920F480006C
:1096D000084360600020DBE700100240007000409B
:1096E000400442422DE9F0470F46050061D0434E49
:1096F000306800F00700B84209D2306820F0070057
:1097000038433060306800F00700B84251D1286813
:109710003B4C810712D5400703D5606840F4E060F8
:1097200060602878000703D5606840F4605060608E
:109730006068A96820F0F000084360602878C007DE
:1097400028D06868012810D02168022810D0890725
:1097500000292EDA616821F0030101436160FFF7FF
:10976000ABFE804641F288390DE021688903EFE7BE
:109770008901EDE7FFF7A0FEA0EB0801494502D9FA
:109780000320BDE8F0876068696800F00C00B0EB6A
:10979000810FEFD1306800F00700B8420BD9306874
:1097A00020F0070038433060306800F00700B8420E
:1097B00001D00120E5E72878400705D56068E96811
:1097C00020F4E060084360602878000706D56068F0
:1097D000296920F4605040EAC100606000F038F868
:1097E0006168084AC1F30311515CC840064908602A
:1097F00006480068FFF78CFE0020C2E70020024008
:1098000000100240A7220208C4090020CC09002051
:109810000448054900684968044AC1F30221515CC3
:10982000C8407047C409002000100240B722020857
:109830000448054900684968044AC1F3C221515CE3
:10984000C8407047C409002000100240B722020837
:1098500012A185B00FC98DE80F0014A0144A00684A
:1098600004905168134801F00C03042B10D0082B0E
:109870000ED1C1F38343C9031DF803000AD5516813
:1098800004AAC1F34041515C0A4A5043B0FBF1F0D5
:1098900005B0704708494843FAE700000203040591
:1098A000060708090A0B0C0D0E0F1010010200002C
:1098B0000010024000127A0000093D002DE9F84F27
:1098C000040070D02078C04DC00749D06868C0F34C
:1098D0008100012807D06868C0F38100022809D1FF
:1098E0006868C00306D52868800339D560680028F9
:1098F000E7D035E06068B0F5803F0BD010B1B0F52F
:10990000A02F11D0286820F480302860286820F427
:10991000802002E0286840F480302860606890B1C0
:10992000FFF7CAFD06460AE0286840F48020286058
:10993000F0E700BFFFF7C0FD801B642873D82868DC
:109940008003F7D50CE0FFF7B7FD064605E000BF42
:10995000FFF7B2FD801B6428F0D828688003F7D495
:1099600020789A4E80074FF001094FF0000839D552
:10997000686810F00C0F07D06868C0F381000228F7
:1099800009D16868C00306D42868800714D5206907
:10999000012808D110E02069B0B1C6F80090FFF7A7
:1099A0008BFD074605E00AE1FFF786FDC01B022894
:1099B000C4D828688007F7D52868616920F0F800C6
:1099C00040EAC10028600DE0C6F80080FFF774FD92
:1099D000074604E0FFF770FDC01B022823D8286863
:1099E0008007F7D4207800072CD57948A169D9B130
:1099F000C0F80090FFF760FD074604E0FFF75CFD4C
:109A0000C01B02280FD8686A8007F7D571484FF449
:109A1000FA510068B0FBF1F0009000BF0098411EC1
:109A20000091FAD20EE080E0C0F80080FFF744FD1C
:109A3000074604E0FFF740FDC01B022875D8686A9E
:109A40008007F7D42078400760D5E8690027C00078
:109A500008D4E86940F08050E861E869012700F027
:109A6000805000905C480168C90513D401688346A2
:109A700041F480710160FFF71FFD824606E000BFE0
:109A8000FFF71AFDA0EB0A0064284ED8DBF80000AF
:109A9000C005F5D5E06801280AD008B1052813D023
:109AA000286A20F001002862286A20F0040002E001
:109AB000286A40F001002862E06841F2883B98B1D2
:109AC000FFF7FAFC82460BE0286A40F004002862A7
:109AD000EEE700BFFFF7F0FCA0EB0A0159455AD8AA
:109AE000286A8007F6D50CE0FFF7E6FC824605E021
:109AF000FFF7E2FCA0EB0A0159454CD8286A800721
:109B0000F6D41FB1E86920F08050E861E06988B3BD
:109B10006968C1F38101022944D00228C6F8608037
:109B200004D0FFF7C9FC044638E034E0FFF7C4FC7A
:109B3000074604E0FFF7C0FCC01B02282BD82868AA
:109B40008001F7D4206AB0F5803F05D16868A1682C
:109B500020F4003008436860D4E9080108436968CC
:109B600021F4741108436860C6F86090FFF7A4FC04
:109B7000044606E025E000BFFFF79EFC001B02281C
:109B800009D828688001F7D51BE000BFFFF794FCD7
:109B9000001B022802D90320BDE8F88F2868800145
:109BA000F4D40EE00128F7D06868226A00F480310E
:109BB000914204D1616A00F47010884201D0012002
:109BC000EAE70020E8E700000010024000004242FF
:109BD00080044242C40900200070004010B5401EBD
:109BE000B0F1807F01D3012010BD4FF0E02460610F
:109BF0000F21601701F036FF0020A06107202061CF
:109C0000002010BD70B590F83C20012A2CD0012412
:109C100080F83C40022280F83D2003685A689D6825
:109C200022F070060A6832435A60104B02689A426A
:109C30000ED00F4B9A420BD0B2F1804F08D00D4B93
:109C40009A4205D00C4B9A4202D00C4B9A4204D156
:109C5000496825F080031943916080F83D40002158
:109C600080F83C10084670BD022070BD002C0140F9
:109C7000003401400004004000080040000C004097
:109C800010B5040003D094F83D0010B107E00120A6
:109C900010BD002084F83C00204600F01FF8022090
:109CA00084F83D00211D206801F05AFB012084F852
:109CB000460084F83E0084F83F0084F8400084F8B1
:109CC000410084F8420084F8430084F8440084F89A
:109CD000450084F83D00002010BD000008B5006874
:109CE0000649884208D10648C16941F00401C161B2
:109CF000C06900F00400009008BD000000080040AA
:109D00000010024070B5044690F83C00012817D0BE
:109D1000012584F83C50022084F83D0020688268C8
:109D200022F0770222F47F4282600868502830D007
:109D30000DDC20284DD005DC98B310283BD148E03D
:109D4000022070BD302844D0402834D139E060284A
:109D500028D0702806D0B0F5805F2CD0B0F5005F19
:109D600029D10AE0CB68D1E90121206801F04BFB41
:109D70002068816841F0770109E0CB68D1E90121D1
:109D8000206801F040FB2068816841F480418160D7
:109D900011E0CA684968206801F00AFC5021206877
:109DA00007E016E0CA684968206801F012FC6021EB
:109DB000206801F032FB84F83D50002084F83C001C
:109DC00070BDCA684968206801F0F2FB4021206834
:109DD000EFE7226801461046EBE7000000B585B0CA
:109DE0000021009101910291039100680B49884282
:109DF00011D10B48816941F0080181618069694690
:109E000000F0080004904020009002200190039090
:109E10000448FFF743FA05B000BD00000008004009
:109E200000100240000C014070B5044690F83C0060
:109E30000D4601280AD0012084F83C0042B1042AD2
:109E400018D0082A2AD00C2A4DD139E0022070BD42
:109E5000206801F0EBFA2068816941F00801816116
:109E60002068816921F004018161206881692A6983
:109E7000114311E0206801F009FB2068816941F479
:109E8000006181612068816921F4806181612068BD
:109E900081692A6941EA0221816124E0206801F098
:109EA0002BFB2068C16941F00801C1612068C169CC
:109EB00021F00401C1612068C1692A69114311E0E0
:109EC000206801F04DFB2068C16941F40061C16167
:109ED0002068C16921F48061C1612068C1692A6973
:109EE00041EA0221C161002084F83C0070BD10B538
:109EF000040003D094F83D0010B107E0012010BD2C
:109F0000002084F83C00204600F01EF8022084F86F
:109F10003D00211D206801F023FA012084F846004D
:109F200084F83E0084F83F0084F8400084F8410043
:109F300084F8420084F8430084F8440084F8450023
:109F400084F83D00002010BD7047000010B50446A5
:109F5000022249B104290ED0082913D094F84100F7
:109F6000012816D0012010BD94F83E000128F9D137
:109F700084F83E200FE094F83F000128F2D184F8E5
:109F80003F2008E094F840000128EBD184F84020FD
:109F900001E084F841200122206801F027FA1349EA
:109FA0002068134A884201D0904203D1436C43F4A5
:109FB00000434364206888420DD090420BD0B0F13A
:109FC000804F08D00B49884205D00B49884202D007
:109FD0000A49884204D1816801F00701062903D0AB
:109FE000016841F001010160002010BD002C01401A
:109FF000003401400004004000080040000C004014
:10A00000704710B504460068416994F83D20C1F3DB
:10A01000C011212A0BD151B1416921F08001416168
:10A02000606B08B1FEF72FFD204601F07FFB206832
:10A03000416994F83E20C1F38011222A0BD151B11D
:10A04000416921F040014161A06B08B1FEF71BFDA1
:10A05000204601F053FB002010BD10B5040014D0C1
:10A06000242084F83D002068C16821F40051C160BB
:10A07000204600F059F90020206484F83D0084F85F
:10A080003E0044F8300F207310BD012010BD0000C9
:10A09000002805D140F23542024903A00EF05ABB18
:10A0A0007047000065130208687561727420213DD5
:10A0B000204E554C4C000000F8B50268044610686C
:10A0C000D168536910F00F0F4FF0000553D003F023
:10A0D000010601F4907737435FD0C20705D0CA0567
:10A0E00003D5226C42F001022264420705D5DA074B
:10A0F00003D0226C42F002022264820705D5DA07FF
:10A1000003D0226C42F004022264020707D501F05A
:10A110002002324303D0226C42F008022264226CF7
:10A12000002A34D0800604D5880602D5204601F0E6
:10A1300006FB20684069216CC0F38010090700D439
:10A1400030B3204601F0DAFA2068416949061BD590
:10A15000416921F040014161A06BA8B158494163B8
:10A16000A06BFEF7B3FC002811D0A06B416B01B0CF
:10A17000BDE8F040084783060FD58B060DD5204675
:10A18000BDE8F84001F0DBBA2046FFF781FFF8BDDB
:10A190002046FFF77DFF2564F8BD266B2023012EA6
:10A1A00052D1C60650D5CE064ED5106850680090E4
:10A1B000506940062AD5A16B086840680004000C6D
:10A1C000EAD0A68D8642E7D9E0858869202818D094
:10A1D000D06820F48070D0602068416921F00101CE
:10A1E00041612068416921F04001416184F83E30BD
:10A1F00025632068C16821F01001C160A06BFEF7E3
:10A2000042FCA08DE18D401A81B219E0A08DE18D54
:10A21000401A81B2E08D0028BED00029BCD0D068A1
:10A2200020F49070D0602068426922F001024261FF
:10A2300084F83E3025632068C26822F01002C260B4
:10A240002046FFF7DDFEF8BD05062BD50D0629D506
:10A2500094F83D002128F6D1A068B0F5805F01D1C7
:10A260002069B0B1206A411C2162216800784860F1
:10A27000E08C401E0004000CE084E4D12068C1683A
:10A2800021F08001C1602068C16841F04001C160D7
:10A29000F8BD206A0088C0F308005060206A801C66
:10A2A0002062E5E74006F3D54806F1D5D16820469F
:10A2B00021F04001D16084F83D3000F05BFAF8BD38
:10A2C000F7B5000870B5040004D094F83D000025EF
:10A2D00010B106E0012070BD84F83C50204600F02B
:10A2E00075F8242084F83D002068C16821F40051ED
:10A2F000C160204601F07EFA2068016921F4904196
:10A3000001612068416921F02A0141612068C1682A
:10A3100041F40051C1602564202084F83D0084F898
:10A320003E00002070BD000010B504460068204AC1
:10A330002049904210D1886920F4804088614FF410
:10A34000C0611D48FEF7FCFEA06BFEF757FC606B7A
:10A35000FEF754FC252025E0184A90420FD1C86929
:10A3600020F40030C86160211548FEF7E9FEA06BBB
:10A37000FEF744FC606BFEF741FC262012E0114A18
:10A38000904213D1C86920F48020C8614FF4406125
:10A390000D48FEF7D5FEA06BFEF730FC606BFEF7B4
:10A3A0002DFC2720BDE81040FFF7D6B810BD0000F7
:10A3B0000038014000100240000801400044004005
:10A3C0000014014000480040000C01402DE9F0431A
:10A3D00085B0002500950195029503950446DFF8A8
:10A3E00044C20368904802210322102680274FF4BC
:10A3F0008068634554D1836943F4804383618369F2
:10A4000003F480430493836943F004038361806908
:10A41000DFF8189200F0040004900802CDE9000172
:10A42000039269464846FEF739FFCDE90085694643
:10A4300048460295FEF732FFDFF8F8817C49404636
:10A44000B946C0E90015C0E90257C8F81050C8F86D
:10A450001450C8F81850C8F81C50FEF733FD08B166
:10A46000FDF7CDFF7248744FC4F838801438C8F82F
:10A4700024403860C7E90165C7E903957D61BD6186
:10A480003846FD61FEF71EFD08B1FDF7B8FF6763B2
:10A490000022114625207C62FFF77CF8252060E031
:10A4A000DFF898C1634561D1C36943F40033C361E8
:10A4B000C36903F400330493836943F02003836189
:10A4C0008069DFF87C8100F0200004902020CDE935
:10A4D0000001039269464046FEF7E0FE4020CDE9C8
:10A4E0000005694640460295FEF7D8FE554841688A
:10A4F00041F0E06141F008014160DFF84C814C49D6
:10A5000040461431C0E90015C0E90257C8F81050A0
:10A51000C8F81450C8F81850B946C8F81C50FEF7CF
:10A52000D1FC08B1FDF76BFF4148484FC4F83880B3
:10A530002830C8F824403860C7E90165C7E90395A9
:10A540007D61BD613846FD61FEF7BCFC08B1FDF7D9
:10A5500056FF67630022114626207C62FFF71AF837
:10A560002620FFF70AF805B0BDE8F083DFF8E0C069
:10A570006345F8D1C36943F48023C361C36903F41D
:10A5800080230493836943F0080383618069CDE9E4
:10A59000008100F00800CDE90320DFF8B8806946AB
:10A5A0004046FEF77BFE4FF40060CDE900056946AA
:10A5B00040460295FEF772FEDFF89C901C49484623
:10A5C0002839C0E90015C0E90257C9F81050C9F888
:10A5D0001450C9F81850B846C9F81C50FEF772FC60
:10A5E00008B1FDF70CFF12481C4FC4F838903C38F6
:10A5F000C9F824403860C7E90165C7E903857D6172
:10A60000BD613846FD61FEF75DFC08B1FDF7F7FE60
:10A6100067630022114627207C62FEF7BBFF2720DC
:10A620009FE7000000380140001002400008014090
:10A6300058000240E0180020241900200044004087
:10A64000001401400000014068190020AC190020EE
:10A6500000480040000C0140F0190020341A00208E
:10A6600090F83E30202B0ED159B152B190F83C30C9
:10A67000012B08D0012380F83C300023036301F054
:10A6800015B90120704702207047000010B5040082
:10A6900005D140F24542054905A00EF05BF804F1F2
:10A6A000D800BDE8104006F0CDB800007C130208C9
:10A6B000687561727420213D204E554C4C0000009D
:10A6C00010B5040005D140F25442054905A00EF032
:10A6D00041F804F1D800BDE8104006F0B3B800001E
:10A6E00094130208687561727420213D204E554C08
:10A6F0004C00000070B5044690F83D00202830D191
:10A7000069B362B394F83C0001282AD0012084F890
:10A710003C002162A284E28400252564212084F883
:10A720003D00636B10489862636B1048D862636B9E
:10A730000F481863606B134645632668606B321DD3
:10A74000FEF7FEFB21686FF04000086084F83C5083
:10A750002068416941F080014161002070BD012005
:10A7600070BD022070BD0000C5B60008F3B6000839
:10A7700007B6000870B5040005D140F276420F49D3
:10A780000FA00DF0E7FFD83406D10C4940F25F422C
:10A7900011390FA00DF0DEFFA4F1D805FAF764FD22
:10A7A000D5F890104D68FAF763FD002D05D12046CD
:10A7B000BDE8704004210FF025BB70BDC113020835
:10A7C000687561727420213D204E554C4C0000008C
:10A7D00073657269616C20213D2052545F4E554C67
:10A7E0004C00000070470000FEB500245248009461
:10A7F0000194504902940160891581600125057317
:10A8000004750E2606614FF460214460C161FDF7B6
:10A810001BFF08B172B6FEE7CDE900450424694686
:10A8200045480294FDF78EFE08B172B6FEE700952A
:10A830000225694640480195FDF784FE08B172B6CD
:10A84000FEE70095032569463B480195FDF77AFE32
:10A8500008B172B6FEE7CDE9005469463648FDF707
:10A8600071FE08B172B6FEE706250520CDE900505D
:10A8700069463148FDF766FE08B172B6FEE7072467
:10A8800069462D48CDE90045FDF75CFE08B172B67A
:10A89000FEE70825CDE9005469462748FDF752FE3A
:10A8A00008B172B6FEE7092469462348CDE90045A0
:10A8B000FDF748FE08B172B6FEE70A25CDE900545F
:10A8C00069461D48FDF73EFE08B172B6FEE70B244F
:10A8D00069461948CDE90045FDF734FE08B172B666
:10A8E000FEE70C25CDE9005469461348FDF72AFE22
:10A8F00008B172B6FEE70D2469460F48CDE9004560
:10A90000FDF720FE08B172B6FEE7CDE900646946A6
:10A910000948FDF717FE08B172B6FEE70F20CDE932
:10A92000000669460448FDF70DFE002801D072B606
:10A93000FEE7FEBD0024014044170020214808B571
:10A94000416941F0010141614069002200F00100CC
:10A95000009011460B20FEF71DFE0B20FEF70DFEAA
:10A96000002211460C20FEF715FE0C20FEF705FE16
:10A97000002211460D20FEF70DFE0D20FEF7FDFD15
:10A98000002211460E20FEF705FE0E20FEF7F5FD13
:10A99000002211460F20FEF7FDFD0F20FEF7EDFD12
:10A9A000002211461020FEF7F5FD1020FEF7E5FD10
:10A9B000002211461120FEF7EDFDBDE808401120F0
:10A9C000FEF7DBBD001002402DE9F04F85B00024FA
:10A9D0004B480094019402940394816941F0100162
:10A9E0008161816901F010010491816941F00401E4
:10A9F0008161816901F004010491816941F00801DC
:10AA00008161816901F008010491816941F040018F
:10AA10008161816901F040010491816941F0200167
:10AA200081618069DFF8DC9000F020004FF4A045E0
:10AA30000490012229464846FEF739FDDFF8C8A0F8
:10AA40004FF40047002239465046FEF730FDDFF84C
:10AA5000BCB04FF4E058002241465846FEF727FDAF
:10AA600000220F212A48FEF722FD0095012502262B
:10AA7000CDE90256694648460195FEF70FFC4FF4B2
:10AA80002040CDE90004694648460294FEF706FCE2
:10AA90004FF61000CDE9000469461D480294FEF708
:10AAA000FDFB4FF4E070CDE900046946584602947E
:10AAB000FEF7F4FB00970396CDE901546946504632
:10AAC000FEF7ECFBCDF800800396CDE90154694612
:10AAD0005846FEF7E3FB0F20CDE90005CDE902461D
